#network #traffic #tcpdump #htb 

`Tcpdump` Это анализатор пакетов командной строки, который может напрямую захватывать и интерпретировать кадры данных из файла или сетевого интерфейса. Он был создан для использования в любой Unix-подобной операционной системе и имел аналог для Windows под названием `WinDump`. Это мощный и простой в использовании инструмент, который применяется в большинстве систем на базе Unix. Он не требует графического интерфейса и может использоваться через любой терминал или удалённое соединение, например SSH. Тем не менее поначалу этот инструмент может показаться сложным из-за множества различных функций и фильтров, которые он предлагает. Однако, как только мы освоим основные функции, нам будет гораздо проще эффективно использовать этот инструмент. Для перехвата сетевого трафика «без проводов» используются библиотеки `pcap` и `libpcap` в сочетании с интерфейсом в режиме promiscuous для прослушивания данных. Это позволяет программе видеть и перехватывать пакеты, отправляемые или получаемые любым устройством в локальной сети, а не только пакеты, предназначенные для нас.

TCPDump доступен для большинства систем Unix и производных от Unix, таких как AIX, BSD, Linux, Solaris, и поставляется многими производителями уже установленным в системе. Из-за прямого доступа к оборудованию для запуска этого инструмента нам нужны права `root` или `administrator's` . Для нас это означает, что для запуска TCPDump нам придётся использовать `sudo`, как показано в примерах ниже. `TCPDump` часто предустановлен в большинстве операционных систем Linux.

Следует отметить, что в Windows был порт TCPDump под названием Windump. Поддержка Windump прекращена. В качестве альтернативы можно запустить дистрибутив Linux, например Parrot или Ubuntu, в подсистеме Windows для Linux. Это позволит создать виртуальный хост Linux прямо на вашем компьютере и использовать TCPDump и многие другие инструменты, созданные для Linux.

#### Найдите Tcpdump

Чтобы проверить, существует ли пакет на нашем хосте, используйте следующую команду:

  Основы Tcpdump

```shell-session
Barlogsha@htb[/htb]$ which tcpdump
```

Часто его можно найти в `/usr/sbin/tcpdump`. Однако, если пакета нет, мы можем установить его с помощью:

#### Установить Tcpdump

  Основы Tcpdump

```shell-session
Barlogsha@htb[/htb]$ sudo apt install tcpdump 
```

Мы можем запустить пакет tcpdump с параметром `--version`, чтобы проверить установку и текущую версию пакета.

#### Проверка версии Tcpdump

  Основы Tcpdump

```shell-session
Barlogsha@htb[/htb]$ sudo tcpdump --version

tcpdump version 4.9.3
libpcap version 1.9.1 (with TPACKET_V3)
OpenSSL 1.1.1f  31 Mar 2020
```

---

## Перехват трафика с помощью Tcpdump

Из-за большого количества различных функций и фильтров нам следует сначала ознакомиться с основными возможностями этого инструмента. Давайте обсудим некоторые базовые параметры TCPDump, продемонстрируем несколько команд и покажем, как сохранять трафик в `PCAP` файлах и считывать его оттуда.

#### Основные параметры захвата

Ниже приведена таблица основных параметров Tcpdump, которые можно использовать для изменения способа захвата данных. Эти параметры можно комбинировать, чтобы настроить вывод данных в STDOUT и сохранение данных в файл захвата. Это не исчерпывающий список, и мы можем использовать множество других параметров, но эти являются наиболее распространёнными и полезными.

| **Команда переключения** | **Результат**                                                                                                                |
| :----------------------: | ---------------------------------------------------------------------------------------------------------------------------- |
|            D             | Отобразит все интерфейсы, доступные для захвата.                                                                             |
|            i             | Выбор интерфейса для захвата. Например, -i eth0                                                                              |
|            n             | Не преобразуйте адреса (например, адреса хостов, номера портов и т. д.) в имена.                                             |
|            e             | Будет получен заголовок Ethernet вместе с данными верхнего уровня.                                                           |
|            X             | Показать содержимое пакетов в шестнадцатеричном формате и в формате ASCII.                                                   |
|            XX            | То же, что и X, но с указанием заголовков Ethernet. (как при использовании Xe)                                               |
|        v, vv, vvv        | Увеличьте количество отображаемых и сохраняемых данных.                                                                      |
|            c             | Выберите определённое количество пакетов, а затем завершите программу.                                                       |
|            s             | Определяет, какую часть пакета нужно взять.                                                                                  |
|            S             | измените относительные порядковые номера в захваченном изображении на абсолютные порядковые номера. (13248765839 вместо 101) |
|            q             | Печатайте меньше информации о протоколе.                                                                                     |
|       r file.pcap        | Считывание из файла.                                                                                                         |
|       w file.pcap        | Запись в файл                                                                                                                |

#### Использование Справочной страницы

Чтобы увидеть полный список переключателей, можно воспользоваться справочными страницами:

#### Справочная страница Tcpdump

  Основы Tcpdump

```shell-session
Barlogsha@htb[/htb]$ man tcpdump
```

Вот несколько примеров базового использования команды Tcpdump с описанием происходящего:

#### Список Доступных Интерфейсов

  Основы Tcpdump

```shell-session
Barlogsha@htb[/htb]$ sudo tcpdump -D

1.eth0 [Up, Running, Connected]
2.any (Pseudo-device that captures on all interfaces) [Up, Running]
3.lo [Up, Running, Loopback]
4.bluetooth0 (Bluetooth adapter number 0) [Wireless, Association status unknown]
5.bluetooth-monitor (Bluetooth Linux Monitor) [Wireless]
6.nflog (Linux netfilter log (NFLOG) interface) [none]
7.nfqueue (Linux netfilter queue (NFQUEUE) interface) [none]
8.dbus-system (D-Bus system bus) [none]
9.dbus-session (D-Bus session bus) [none]
```

Приведенная выше команда вызывает tcpdump с правами sudo и выводит список доступных сетевых интерфейсов. Мы можем выбрать один из этих сетевых интерфейсов и указать tcpdump, какие интерфейсы он должен прослушивать.

#### Выбор интерфейса для захвата

  Основы Tcpdump

```shell-session
Barlogsha@htb[/htb]$ sudo tcpdump -i eth0

tcpdump: verbose output suppressed, use -v[v]... for full protocol decode
listening on eth0, link-type EN10MB (Ethernet), snapshot length 262144 bytes
10:58:33.719241 IP 172.16.146.2.55260 > 172.67.1.1.https: Flags [P.], seq 1953742992:1953743073, ack 2034210498, win 501, length 81
10:58:33.747853 IP 172.67.1.1.https > 172.16.146.2.55260: Flags [.], ack 81, win 158, length 0
10:58:33.750393 IP 172.16.146.2.52195 > 172.16.146.1.domain: 7579+ PTR? 1.1.67.172.in-addr.arpa. (41)
```

В этом терминале мы вызываем tcpdump и выбираем интерфейс eth0 для перехвата трафика. Как только мы введём команду, tcpdump начнёт перехватывать трафик и отобразит первые несколько пакетов, прошедших через интерфейс. Используя `-nn`-переключатели, как показано ниже, мы указываем TCPDump не преобразовывать IP-адреса и номера портов в имена хостов и распространённые имена портов. В этом представлении последний октет — это порт, через который осуществляется соединение.

#### Отключить Разрешение имен

  Основы Tcpdump

```shell-session
Barlogsha@htb[/htb]$ sudo tcpdump -i eth0 -nn

tcpdump: verbose output suppressed, use -v[v]... for full protocol decode
listening on eth0, link-type EN10MB (Ethernet), snapshot length 262144 bytes
11:02:35.580449 IP 172.16.146.2.48402 > 52.31.199.148.443: Flags [P.], seq 988167196:988167233, ack 1512376150, win 501, options [nop,nop,TS val 214282239 ecr 77421665], length 37
11:02:35.588695 IP 172.16.146.2.55272 > 172.67.1.1.443: Flags [P.], seq 940648841:940648916, ack 4248406693, win 501, length 75
11:02:35.654368 IP 172.67.1.1.443 > 172.16.146.2.55272: Flags [.], ack 75, win 70, length 0
11:02:35.728889 IP 52.31.199.148.443 > 172.16.146.2.48402: Flags [P.], seq 1:34, ack 37, win 118, options [nop,nop,TS val 77434740 ecr 214282239], length 33
11:02:35.728988 IP 172.16.146.2.48402 > 52.31.199.148.443: Flags [.], ack 34, win 501, options [nop,nop,TS val 214282388 ecr 77434740], length 0
11:02:35.729073 IP 52.31.199.148.443 > 172.16.146.2.48402: Flags [P.], seq 34:65, ack 37, win 118, options [nop,nop,TS val 77434740 ecr 214282239], length 31
11:02:35.729081 IP 172.16.146.2.48402 > 52.31.199.148.443: Flags [.], ack 65, win 501, options [nop,nop,TS val 214282388 ecr 77434740], length 0
11:02:35.729348 IP 52.31.199.148.443 > 172.16.146.2.48402: Flags [F.], seq 65, ack 37, win 118, options [nop,nop,TS val 77434740 ecr 214282239], length 0
```

При использовании `-e`-переключателя мы указываем tcpdump включать в вывод захвата заголовки Ethernet вместе с обычным содержимым. Мы можем убедиться, что это работает, изучив вывод. Обычно первое и второе поля содержат метку времени, а затем начало IP-заголовка. Теперь они содержат метку времени и исходный MAC-адрес хоста.

#### Отображение заголовка Ethernet

  Основы Tcpdump

```shell-session
Barlogsha@htb[/htb]$ sudo tcpdump -i eth0 -e

tcpdump: verbose output suppressed, use -v[v]... for full protocol decode
listening on eth0, link-type EN10MB (Ethernet), snapshot length 262144 bytes
11:05:45.982115 00:0c:29:97:52:65 (oui Unknown) > 8a:66:5a:11:8d:64 (oui Unknown), ethertype IPv4 (0x0800), length 103: 172.16.146.2.57142 > ec2-99-80-22-207.eu-west-1.compute.amazonaws.com.https: Flags [P.], seq 922951468:922951505, ack 1842875143, win 501, options [nop,nop,TS val 1368272062 ecr 65637925], length 37
11:05:45.989652 00:0c:29:97:52:65 (oui Unknown) > 8a:66:5a:11:8d:64 (oui Unknown), ethertype IPv4 (0x0800), length 129: 172.16.146.2.55272 > 172.67.1.1.https: Flags [P.], seq 940656124:940656199, ack 4248413119, win 501, length 75
11:05:46.047731 00:0c:29:97:52:65 (oui Unknown) > 8a:66:5a:11:8d:64 (oui Unknown), ethertype IPv4 (0x0800), length 85: 172.16.146.2.54006 > 172.16.146.1.domain: 31772+ PTR? 207.22.80.99.in-addr.arpa. (43)
11:05:46.049134 8a:66:5a:11:8d:64 (oui Unknown) > 00:0c:29:97:52:65 (oui Unknown), ethertype IPv4 (0x0800), length 147: 172.16.146.1.domain > 172.16.146.2.54006: 31772 1/0/0 PTR ec2-99-80-22-207.eu-west-1.compute.amazonaws.com. (105)
```

С помощью команды `-X` мы можем увидеть пакет немного яснее. Справа мы получаем вывод в формате ASCII, который позволяет интерпретировать любой открытый текст, соответствующий шестнадцатеричному выводу слева.

#### Включить вывод в формате ASCII и шестнадцатеричном формате

  Основы Tcpdump

```shell-session
Barlogsha@htb[/htb]$ sudo tcpdump -i eth0 -X

tcpdump: verbose output suppressed, use -v[v]... for full protocol decode
listening on eth0, link-type EN10MB (Ethernet), snapshot length 262144 bytes
11:10:34.972248 IP 172.16.146.2.57170 > ec2-99-80-22-207.eu-west-1.compute.amazonaws.com.https: Flags [P.], seq 2612172989:2612173026, ack 3165195759, win 501, options [nop,nop,TS val 1368561052 ecr 65712142], length 37
    0x0000:  4500 0059 4352 4000 4006 3f1b ac10 9202  E..YCR@.@.?.....
    0x0010:  6350 16cf df52 01bb 9bb2 98bd bca9 0def  cP...R..........
    0x0020:  8018 01f5 b87d 0000 0101 080a 5192 959c  .....}......Q...
    0x0030:  03ea b00e 1703 0300 2000 0000 0000 0000  ................
    0x0040:  0adb 84ac 34b4 910a 0fb4 2f49 9865 eb45  ....4...../I.e.E
    0x0050:  883c eafd 8266 3e23 88                   .<...f>#.
11:10:34.984582 IP 172.16.146.2.38732 > 172.16.146.1.domain: 22938+ A? app.hackthebox.eu. (35)
    0x0000:  4500 003f 2e6b 4000 4011 901e ac10 9202  E..?.k@.@.......
    0x0010:  ac10 9201 974c 0035 002b 7c61 599a 0100  .....L.5.+|aY...
    0x0020:  0001 0000 0000 0000 0361 7070 0a68 6163  .........app.hac
    0x0030:  6b74 6865 626f 7802 6575 0000 0100 01    kthebox.eu.....
11:10:35.055497 IP 172.16.146.2.43116 > 172.16.146.1.domain: 6524+ PTR? 207.22.80.99.in-addr.arpa. (43)
    0x0000:  4500 0047 2e72 4000 4011 900f ac10 9202  E..G.r@.@.......
    0x0010:  ac10 9201 a86c 0035 0033 7c69 197c 0100  .....l.5.3|i.|..
    0x0020:  0001 0000 0000 0000 0332 3037 0232 3202  .........207.22.
    0x0030:  3830 0239 3907 696e 2d61 6464 7204 6172  80.99.in-addr.ar
    0x0040:  7061 0000 0c00 01                        pa.....
```

Обратите внимание на уровень детализации в приведённом выше выводе. Мы видим, что у нас есть информация о параметрах IP-заголовка, таких как время жизни, смещение и другие флаги, а также более подробные сведения о протоколах верхнего уровня. Ниже мы комбинируем переключатели, чтобы получить нужный нам вывод.

#### Комбинации переключателей Tcpdump

  Основы Tcpdump

```shell-session
Barlogsha@htb[/htb]$ sudo tcpdump -i eth0 -nnvXX

tcpdump: listening on eth0, link-type EN10MB (Ethernet), snapshot length 262144 bytes
11:13:59.149599 IP (tos 0x0, ttl 64, id 24075, offset 0, flags [DF], proto TCP (6), length 89)
    172.16.146.2.42454 > 54.77.251.34.443: Flags [P.], cksum 0x6fce (incorrect -> 0xb042), seq 671020720:671020757, ack 3699222968, win 501, options [nop,nop,TS val 1154433101 ecr 1116647414], length 37
    0x0000:  8a66 5a11 8d64 000c 2997 5265 0800 4500  .fZ..d..).Re..E.
    0x0010:  0059 5e0b 4000 4006 6d11 ac10 9202 364d  .Y^.@.@.m.....6M
    0x0020:  fb22 a5d6 01bb 27fe f6b0 dc7d a9b8 8018  ."....'....}....
    0x0030:  01f5 6fce 0000 0101 080a 44cf 404d 428e  ..o.......D.@MB.
    0x0040:  aff6 1703 0300 2000 0000 0000 0000 09bb  ................
    0x0050:  38d9 d89a 2d70 73d5 a01e 9df7 2c48 5b8a  8...-ps.....,H[.
    0x0060:  d64d 8e42 2ccc 43                        .M.B,.C
11:13:59.157113 IP (tos 0x0, ttl 64, id 31823, offset 0, flags [DF], proto UDP (17), length 63)
    172.16.146.2.55351 > 172.16.146.1.53: 26460+ A? app.hackthebox.eu. (35)
    0x0000:  8a66 5a11 8d64 000c 2997 5265 0800 4500  .fZ..d..).Re..E.
    0x0010:  003f 7c4f 4000 4011 423a ac10 9202 ac10  .?|O@.@.B:......
    0x0020:  9201 d837 0035 002b 7c61 675c 0100 0001  ...7.5.+|ag\....
    0x0030:  0000 0000 0000 0361 7070 0a68 6163 6b74  .......app.hackt
    0x0040:  6865 626f 7802 6575 0000 0100 01         hebox.eu.....
11:13:59.158029 IP (tos 0x0, ttl 64, id 20784, offset 0, flags [none], proto UDP (17), length 111)
    172.16.146.1.53 > 172.16.146.2.55351: 26460 3/0/0 app.hackthebox.eu. A 104.20.55.68, app.hackthebox.eu. A 172.67.1.1, app.hackthebox.eu. A 104.20.66.68 (83)
    0x0000:  000c 2997 5265 8a66 5a11 8d64 0800 4500  ..).Re.fZ..d..E.
    0x0010:  006f 5130 0000 4011 ad29 ac10 9201 ac10  .oQ0..@..)......
    0x0020:  9202 0035 d837 005b 9d2e 675c 8180 0001  ...5.7.[..g\....
    0x0030:  0003 0000 0000 0361 7070 0a68 6163 6b74  .......app.hackt
    0x0040:  6865 626f 7802 6575 0000 0100 01c0 0c00  hebox.eu........
    0x0050:  0100 0100 0000 ab00 0468 1437 44c0 0c00  .........h.7D...
    0x0060:  0100 0100 0000 ab00 04ac 4301 01c0 0c00  ..........C.....
    0x0070:  0100 0100 0000 ab00 0468 1442 44         .........h.BD
11:13:59.158335 IP (tos 0x0, ttl 64, id 20242, offset 0, flags [DF], proto TCP (6), length 60)
    172.16.146.2.55416 > 172.67.1.1.443: Flags [S], cksum 0xeb85 (incorrect -> 0x72f7), seq 3766489491, win 64240, options [mss 1460,sackOK,TS val 508232750 ecr 0,nop,wscale 7], length 0
    0x0000:  8a66 5a11 8d64 000c 2997 5265 0800 4500  .fZ..d..).Re..E.
    0x0010:  003c 4f12 4000 4006 0053 ac10 9202 ac43  .<O.@.@..S.....C
    0x0020:  0101 d878 01bb e080 1193 0000 0000 a002  ...x............
    0x0030:  faf0 eb85 0000 0204 05b4 0402 080a 1e4b  ...............K
    0x0040:  042e 0000 0000 0103 0307                 ..........
```

При использовании переключателей рекомендуется объединять их в цепочку, как в примере `above`.

---

## Вывод Tcpdump

Просмотр результатов работы TCPDump может показаться сложным. Использование этих базовых переключателей уже позволило нам увидеть несколько разных вариантов. Мы потратим минуту на то, чтобы проанализировать эти результаты и объяснить, что мы видим. На изображении и в таблице ниже описано каждое поле. Помните, что чем подробнее мы настраиваем фильтры, тем больше деталей из каждого заголовка отображается.

#### Поломка оболочки Tcpdump

![[Pasted image 20250907175817.png]]

|**Фильтр**|**Результат**|
|---|---|
|Временная метка|`Yellow` Поле с отметкой времени находится первым и может быть настроено таким образом, чтобы отображать время и дату в удобном для нас формате.|
|Протокол|`Orange` В этом разделе мы узнаем, что такое заголовок верхнего уровня. В нашем примере указан IP-адрес.|
|IP-адрес источника и назначения. Порт|`Orange` Так мы увидим источник и получателя пакета, а также номер порта, использованного для подключения. Формат == `IP.port == 172.16.146.2.21`|
|Флаги|`Green` В этой части показаны все используемые флаги.|
|Порядковые номера и номера подтверждения|`Red` В этом разделе показаны порядковые номера и номера подтверждения, используемые для отслеживания TCP-сегмента. В нашем примере используются небольшие числа, чтобы можно было предположить, что отображаются относительные порядковые номера и номера подтверждения.|
|Параметры протокола|`Blue` Здесь мы увидим все согласованные значения TCP, установленные между клиентом и сервером, такие как размер окна, выборочные подтверждения, коэффициенты масштабирования окна и т. д.|
|Примечания / Следующий Заголовок|`White` Здесь будут представлены различные примечания, обнаруженные декомпилятором. Поскольку просматриваемый нами трафик инкапсулирован, мы можем увидеть дополнительную информацию о заголовках для различных протоколов. В нашем примере видно, что декомпилятор TCPDump распознаёт FTP-трафик внутри инкапсуляции и отображает его для нас.|

Существует множество других опций и сведений, которые можно отобразить. Эти сведения зависят от уровня детализации, который выбран. Для более подробного ознакомления с IP-адресами и другими заголовками протоколов см. `Networking Primer` во втором разделе или `Networking fundamentals` путь.

Знание принципов работы сети и способов использования фильтров, предоставляемых TCPDump, дает большое преимущество. С их помощью мы можем просматривать сетевой трафик, анализировать его на предмет проблем и быстро выявлять подозрительные сетевые взаимодействия. Теоретически мы можем использовать `tcpdump` для создания системы IDS/IPS, заставив скрипт Bash анализировать перехваченные пакеты по определенному шаблону. Затем мы можем задать условия, например, для блокировки определенного IP-адреса, который в течение определенного периода отправлял слишком много эхо-запросов ICMP.

---

## Файловый ввод/вывод с помощью Tcpdump

Использование `-w` позволит записать наш захват в файл. Помните, что при захвате трафика с сетевого интерфейса мы можем быстро израсходовать свободное место на диске и столкнуться с проблемами хранения данных, если не будем осторожны. Чем больше наш сетевой сегмент, тем быстрее мы израсходуем место для хранения данных. Использование коммутаторов, описанных выше, поможет настроить объем данных, сохраняемых в PCAP.

#### Сохраните вывод PCAP в файл

  Основы Tcpdump

```shell-session
Barlogsha@htb[/htb]$ sudo tcpdump -i eth0 -w ~/output.pcap

tcpdump: listening on eth0, link-type EN10MB (Ethernet), snapshot length 262144 bytes
10 packets captured
131 packets received by filter
0 packets dropped by kernel
```

Приведённый выше пример создаст вывод в файл с именем `output.pcap`. При таком запуске tcpdump вывод не будет прокручиваться в терминале, как обычно. Весь вывод tcpdump перенаправляется в файл, указанный для захвата.

#### Чтение выходных данных из файла

  Основы Tcpdump

```shell-session
Barlogsha@htb[/htb]$ sudo tcpdump -r ~/output.pcap

reading from file /home/trey/output.pcap, link-type EN10MB (Ethernet), snapshot length 262144
11:15:40.321509 IP 172.16.146.2.57236 > ec2-99-80-22-207.eu-west-1.compute.amazonaws.com.https: Flags [P.], seq 2751910362:2751910399, ack 946558143, win 501, options [nop,nop,TS val 1368866401 ecr 65790024], length 37
11:15:40.337302 IP 172.16.146.2.55416 > 172.67.1.1.https: Flags [P.], seq 3766493458:3766493533, ack 4098207917, win 501, length 75
11:15:40.398103 IP 172.67.1.1.https > 172.16.146.2.55416: Flags [.], ack 75, win 73, length 0
11:15:40.457416 IP ec2-99-80-22-207.eu-west-1.compute.amazonaws.com.https > 172.16.146.2.57236: Flags [.], ack 37, win 118, options [nop,nop,TS val 65799068 ecr 1368866401], length 0
11:15:40.458582 IP ec2-99-80-22-207.eu-west-1.compute.amazonaws.com.https > 172.16.146.2.57236: Flags [P.], seq 34:65, ack 37, win 118, options [nop,nop,TS val 65799068 ecr 1368866401], length 31
11:15:40.458599 IP 172.16.146.2.57236 > ec2-99-80-22-207.eu-west-1.compute.amazonaws.com.https: Flags [.], ack 1, win 501, options [nop,nop,TS val 1368866538 ecr 65799068,nop,nop,sack 1 {34:65}], length 0
11:15:40.458643 IP ec2-99-80-22-207.eu-west-1.compute.amazonaws.com.https > 172.16.146.2.57236: Flags [P.], seq 1:34, ack 37, win 118, options [nop,nop,TS val 65799068 ecr 1368866401], length 33
11:15:40.458655 IP 172.16.146.2.57236 > ec2-99-80-22-207.eu-west-1.compute.amazonaws.com.https: Flags [.], ack 65, win 501, options [nop,nop,TS val 1368866538 ecr 65799068], length 0
11:15:40.458915 IP 172.16.146.2.57236 > ec2-99-80-22-207.eu-west-1.compute.amazonaws.com.https: Flags [P.], seq 37:68, ack 65, win 501, options [nop,nop,TS val 1368866539 ecr 65799068], length 31
11:15:40.458964 IP 172.16.146.2.57236 > ec2-99-80-22-207.eu-west-1.compute.amazonaws.com.https: Flags [F.], seq 68, ack 65, win 501, options [nop,nop,TS val 1368866539 ecr 65799068], length 0
```

Это позволит прочитать данные, сохранённые в `output.pcap`. Обратите внимание, что мы вернулись к базовому виду. Чтобы получить более подробную информацию из файла с данными, повторно примените наши переключатели.